:020000040001F9
:10B00000F0290020858F02007FF80100D7F90100A8
:10B010000000000000000000000000000000000030
:10B02000000000000000000000000000E3FF01003D
:10B030000000000000000000E7FF0100031A02000A
:10B04000234B0200B34B0200F9490200BF8E0200FD
:10B050009372020000000000BD6D02003F900200EC
:10B060001B8F0200298F02004B9002007B90020090
:10B070009B900200C5900200C7900200C990020098
:10B08000054702005F130200CB900200CD90020042
:10B0900077130200CF90020015820200D1900200C7
:10B0A000D3900200D59002000000000000000000D4
:10B0B0000000000000000000000000000000000090
:10B0C000E022520080180268914203D34368D218EC
:10B0D000914202D380680028F5D170471848016872
:10B0E00000290ED1802149028160090941600021B7
:10B0F000C943C160016104214161124A11601249D2
:10B1000001600120704730B407230C0008341C4252
:10B1100001D1002304E008240D000835641B2340FE
:10B12000C918D21A8161C260012313434B602823DE
:10B1300089184B6002490969C16130BC7047000041
:10B14000C03E0020103900206859883CF0B587B017
:10B15000040007200D000835054205D008250E0023
:10B160000836AD1B05404919029111000831014212
:10B1700005D0082115000835491B08401218170092
:10B180000298C018039005460298381AC01A019018
:10B190000326334302984360BD4201D301F0ECFA29
:10B1A0003879C00701D401F0E7FA0198102801D2DC
:10B1B00001F0E2FAA069874208D1E06801994018DD
:10B1C000E060A5610121014369606AE1606987422D
:10B1D00009D1A06801994018A0606561012101436F
:10B1E000696028505DE178680640012E00D0B9E022
:10B1F000072188430590C00820283CD2B9680091F7
:10B20000FE680490B74201D101F0B6FA0098874277
:10B2100001D101F0B1FA7868072188430499C90087
:10B22000884201D001F0A8FA0498C00020180099C3
:10B2300002002832914207D02269914200D289E06F
:10B24000C968B94200D085E000998E4206D12068D5
:10B250000121049A9140884320607DE02830864295
:10B2600005D02069864275D3B068B84272D1CE60ED
:10B270000098B06070E0B8690090FE68BE420CD0E3
:10B28000B8682169884225D3C168B94222D1B16822
:10B29000B9421FD1C660B0601EE0380014300668A5
:10B2A000002E07D1380010300668002E14D001E0BF
:10B2B00008000668310014310A68002AF8D131000C
:10B2C00010310A68002AF3D12169884202D3002193
:10B2D000016001E001F050FA009800283CD0F869C4
:10B2E0008000201898214900401801688F4209D138
:10B2F0000660002E14D160680121FA6991408843EC
:10B30000606029E000982169884207D30069B8424B
:10B31000009801D1066103E0466101E001F02CFADA
:10B32000002E19D02069864214D30099B161396981
:10B33000002906D0814202D331618E6101E001F023
:10B340001BFA7869002807D02169884202D370610E
:10B35000866101E001F010FA05983F1801980599FF
:10B360004018019078680121884378600198014372
:10B370006960019828500198C008202822D20090C6
:10B38000C000271828373E000198102801D201F08C
:10B39000F3F9206800990200CA40D10705D40121C1
:10B3A000009A91400143216007E0B8682169884212
:10B3B00001D3060001E001F0DFF9BD60F560AE6089
:10B3C000EF606EE00198000A01D1002225E08021A3
:10B3D0004902884201D31F221FE0FF21C9434118BF
:10B3E000090C082211408840304A8218120C0423AC
:10B3F0001A4090402E4BC3181B0C022633400E26D9
:10B40000711A891AC91A9840C00B08184100019A8C
:10B41000C01DC240D007C00F0A1890002018982104
:10B4200049004118EA6100206861286163681E00D4
:10B43000D640F60705D401209040184360600D60A7
:10B440001BE009681F2A019B05D019265208B21A71
:10B45000934000E011004A680726B243019EB242C1
:10B4600010D0DA0F92008E1810365B003268002A76
:10B47000F0D12069864212D33560A961ED6003984E
:10B48000A8600EE08A682369994208D39A4206D3DD
:10B49000D560039B8B60AA60E960A86101E001F0C0
:10B4A0006BF90298083007B0F0BD000000F0FFFF14
:10B4B00000C0FFFFF2B586B004008F480068002886
:10B4C00001D1FFF70BFE8C488168069840182F3099
:10B4D000491E88430699814200D3DCE1D821490006
:10B4E00061188968002909D0D8225200A258101882
:10B4F000824200D3CFE1814200D2CCE101F080F959
:10B50000002800D1C7E1009007680021C9438842A4
:10B5100000D1C0E1D82040002058C019D8214900EE
:10B52000605061184968814200D20100D820400073
:10B5300020184160A069002839D12069002802D074
:10B540000099814201D2009820610098D8214900D9
:10B5500061180861D8204000201847610026D820D3
:10B5600040002018C6616448006860620020C04343
:10B57000206220002830C0600146816008314161AE
:10B580000161B61C1030202EF5D3C448844203D18B
:10B59000283F3A00009926E0201F006807218843D1
:10B5A000211808390098C019421A283A1BE0E020F7
:10B5B0004000201800E08068002818D00099026838
:10B5C0004368D2189142F6D1017B09070FD4A169D3
:10B5D000026891420BD3D218914208D2D919416026
:10B5E000E068C219A1692000FFF78DFD3FE10098D6
:10B5F0002169884200D22061E02040002018009993
:10B60000C91900E08068002810D002688A42F9D188
:10B61000017B09070AD4009901604168C91941609A
:10B62000069B00992000FFF791FD35E1A06903908A
:10B63000054629002000FFF743FD0168406808180F
:10B64000059027380026410701D1002003E008219A
:10B65000081A4007400F059908182F3829001031A3
:10B66000884201D2019500E00190019818300290C3
:10B6700004963800283800990831490701D1002183
:10B6800005E00821009A0832891A4907490F401A33
:10B69000009A5118A161E060012202434A60282209
:10B6A0000818426014480069E061019808304007BA
:10B6B00001D001F061F81B20019948600198083021
:10B6C000E02149006118102201F0C4F80098D82147
:10B6D000490061180861D820400020184761D8202F
:10B6E00040002018C66101980830D821490061182F
:10B6F0008861059805E000BFC03E00200299091D41
:10B7000002910721029A51600499491C04910299FF
:10B7100008318142F2D30498022801DA01F02CF8B2
:10B720000198A84200D1A2E0411B426801239A433C
:10B73000426001220A436A600160C808202821D2C1
:10B740000090C000271828373E00102901D201F0D0
:10B7500013F8206800990200CA40D10705D40121DE
:10B76000009A91400143216007E0B868216988424E
:10B7700001D3060001E000F0FFFFBD60F560AE60A0
:10B78000EF6074E0080A01D1002228E01A04904218
:10B7900001D31F2223E0FF22D2438218120C082378
:10B7A0001A40009290403E4A8218120C04231A401C
:10B7B00090403C4BC3181B0C02273B4001930E23C7
:10B7C000009FDB1B9A1A019BD21A9840C00B1018DD
:10B7D0004200C01D0B00C340D807C00F12189000D4
:10B7E000201898235B00C0180090EA616E612E61FA
:10B7F00060680300D340DB0707D401219140014377
:10B8000061600098056000981DE0009800681F2A9C
:10B8100001D10A0006E0192352089B1A0A009A4037
:10B8200000E0380043680727BB438B4210D0D30F9A
:10B830009B00C318103352001F68002FF1D12169FB
:10B840008B4212D31D60A861ED600398A8600EE0E2
:10B8500081682269904208D3914206D3CD60039A51
:10B860008260A960E860AE6101E000F085FFE068F9
:10B87000069981420FD2401AE060A169069A8A189F
:10B88000A2610123034353600698032202434A60E6
:10B890000800083000E0002007B0F0BD5437002059
:10B8A00000F0FFFF00C0FFFFF2B584B004000020ED
:10B8B000009004984542000A25D080214902884220
:10B8C00001D31F201FE0FF21C9434118090C0822A2
:10B8D00011408840B34A8218120C04231A40904049
:10B8E000114BC3181B0C022633400E26711A891AFD
:10B8F000C91A9840C00B08184100049AC01DC240E4
:10B90000D007C00F081881006118982252008B5888
:10B91000002B28D01F28049A03D019214608891B20
:10B920008A40002103E000BF00C0FFFF52005E68B4
:10B930000727BE43049FF61BAE4202D20093350098
:10B940000CD05E69D70FBF00DB191B69002E02D037
:10B950009E4200D03100002BE8D10B00002B3FD1DC
:10B96000009900293ED1012101228240500043422A
:10B97000034362681A4000D178E150421040401EF3
:10B98000020B10231A40D040430908263340D84008
:10B99000860804273E400296F040460802273E40B3
:10B9A0000196F04046083140D218029BD218019B04
:10B9B000D2185218C8401018800020189821490049
:10B9C00043580DE003005868072188430499401A42
:10B9D000A84201D20500009318690028F2D15B69E2
:10B9E000002BF0D10098002800D13FE1A068049915
:10B9F000401A854200D339E1009E2069864200D278
:10BA000032E1681802900098406807218843029943
:10BA1000884201D000F0B0FE009804994718BE4259
:10BA200000D321E1806901900098C66886420DD05C
:10BA300080682169884225D3C168009A914221D14A
:10BA4000B16891421ED1C660B0601DE01430066836
:10BA5000002E07D1009810300668002E14D001E0A7
:10BA600008000668310014310A68002AF8D1310054
:10BA700010310A68002AF3D12169884202D30021DB
:10BA8000016001E000F078FE0198002843D00098A2
:10BA9000C069800020189821490040180099026868
:10BAA00091420AD10660002E16D160680121009AE9
:10BAB000D2699140884360602DE0019821698842F5
:10BAC00008D3006900998842019801D1066103E01A
:10BAD000466101E000F050FE002E1CD02069864235
:10BAE00017D30198B06100980069002807D0216938
:10BAF000884202D33061866101E000F03DFE00988B
:10BB00004069002807D02169884202D370618661AC
:10BB100001E000F031FE03200121102D0AD2029A2B
:10BB20001043009A50600098029A801842681143AE
:10BB3000416096E0049A1043009A50600120284327
:10BB400078607D51E808202819D2C200A61828364E
:10BB5000350022681300C3400B4003D181401143DC
:10BB6000216007E0B0682169884201D3050001E047
:10BB700000F002FEB760EF60BD60FE6071E0280A71
:10BB800001D100222AE00A04904201D31F2225E0BD
:10BB9000FF22D2438218120C08231A4001929040CF
:10BBA000004A01E000F0FFFF8218120C04231A4043
:10BBB0009040304BC3181B0C0226334002930E23D7
:10BBC000019E9B1B9A1A029BD21A9840C00B101818
:10BBD0004200C01D2B00C3400B40D218900020181B
:10BBE00098235B00C018FA6100237B613B616368A6
:10BBF0001E00D6400E4004D1914019436160076099
:10BC00001CE000681F2A01D1290006E01921520812
:10BC10008A1A2900914000E01000426807239A43E5
:10BC2000AA420FD0CA0F92008318103349001A6835
:10BC3000002AF1D121698B4211D31F60B861FF60E6
:10BC4000BF600EE081682269904208D3914206D31A
:10BC5000CF608760B960F8600020B86101E000F053
:10BC60008BFD0098083002E000F086FD002005B052
:10BC7000F0BD000000C0FFFFF2B586B004006168AF
:10BC800048420840401E010B10221140C8404209A2
:10BC900008231A40D040830804252B40D84045088B
:10BCA00002263540E8408607F60F8918C918491959
:10BCB0008919F04008188000201898214900405840
:10BCC0000700416807229143069A8D1A09E008008F
:10BCD000416807229143069A891AA94201D20D00B0
:10BCE000070001690029F2D140690028F0D12069DC
:10BCF000874200D2D3E0A8180190786807218843D2
:10BD00000199884201D000F037FD06983818049058
:10BD1000874200D3C3E0B8690090FE68BE420CD0F1
:10BD2000B8682169884225D3C168B94222D1B16877
:10BD3000B9421FD1C660B0601EE0380014300668FA
:10BD4000002E07D1380010300668002E14D001E014
:10BD500008000668310014310A68002AF8D1310061
:10BD600010310A68002AF3D12169884202D30021E8
:10BD7000016001E000F000FD009800283DD0F86966
:10BD80008000201898214900401801688F4209D18D
:10BD90000660002E14D160680121FA699140884341
:10BDA00060602AE000982169884207D30069B842A0
:10BDB000009801D1066103E0466101E000F0DCFC7F
:10BDC000002E1AD02069864215D30098B0613869D8
:10BDD000002807D02169884202D33061866101E0E2
:10BDE00000F0CAFC7869002807D02169884202D394
:10BDF0007061866101E000F0BFFC0320102D09D2C4
:10BE000001990843786001983818416801220A4373
:10BE1000426041E006990843786001202843049974
:10BE2000486004984551A0680090C608202E01D3B0
:10BE300000F0A2FC009800282BD0606903900196C6
:10BE4000F00020182830029006460098102801D2F1
:10BE500000F092FC206801990200CA40D10705D485
:10BE60000121019A91400143216008E00298806815
:10BE70002169884201D3060001E000F07DFC0398AF
:10BE8000029988600398F06003988660029803998D
:10BE9000C860A560049860613800083002E000F0D6
:10BEA0006BFC002007B0F0BDF0B587B0040000BF08
:10BEB00000BFBA4DF52C00D325E10B2C01D2102484
:10BEC00002E00B3407208443E008009028680099C2
:10BED000C840032738424DD00126012282438818EA
:10BEE0000090C00028182830029084680098C00094
:10BEF00003906068072188430399884201D000F0CD
:10BF00003BFCA06801900298844201D100F034FC0F
:10BF10000198844201D100F02FFC6068072188431A
:10BF20000399884201D000F027FC029801998842C9
:10BF300006D12968009A01209040814329600FE0D2
:10BF400008462969884209D3C068A04206D10198F1
:10BF50000299886002980199C86001E000F00CFC29
:10BF60000398074367600398201841680E434660B2
:10BF7000260007E1A968A14200D3D7E0002800D13C
:10BF8000B7E00126009901228A405100009A9040B2
:10BF90004A420A43024051421140491E080B1022F6
:10BFA0001040C1404A0908231A400092D1408A0833
:10BFB00004231A400192D1404A0802231A400292F7
:10BFC000D1404A083240009BC018019BC018029B18
:10BFD000C0188018D14040180390C000281828309D
:10BFE0000090806804900398C00002900498406814
:10BFF000072188430299884201D000F0BDFB0498D4
:10C000008068019004980099884201D100F0B4FB47
:10C0100004980199884201D100F0AEFB0498406871
:10C02000072188430299884201D000F0A5FB0098BF
:10C030000199884206D12968039A012090408143E2
:10C04000296010E00846296988420AD3C06804992B
:10C05000884206D101980099886000980199C860CB
:10C0600001E000F089FB0298001B0390274304982D
:10C07000476004980019059003983043059948607B
:10C08000039805990850A8680090C408202C01D393
:10C0900000F072FB0098002825D068690290019496
:10C0A000E0002F1828373C000098102801D200F03B
:10C0B00063FB286801990200CA40324003D18E40D8
:10C0C00006432E6007E0B8682969884201D304005E
:10C0D00001E000F051FB0298B8600298E06002981D
:10C0E00084600298C7600398A86005986861049E00
:10C0F00048E06868002836D021002800FFF7BCFD22
:10C10000060013D045E03F20C043844202D3002400
:10C11000E4430BE00B34072084436868002805D013
:10C1200021002800FFF7C0FB060032D1A968A14218
:10C1300019D30A1B686901260327102A08D301199D
:10C140006961AA6016434E608A502743476008E041
:10C150000022AA606A610F43476041184A6816438B
:10C160004E6006000EE0E86884420DD2001BE860D5
:10C17000A9690A19AA6101230343536003202043DC
:10C1800048600E00083604E021002800FFF792F90D
:10C19000060000BF00BF300007B0F0BD54370020DC
:10C1A000002800D17047F0B585B00838050000BF01
:10C1B00000BF474C2069854200D2D2E26B68032160
:10C1C00003221A40012A00D1CBE2DE08F600AA19A8
:10C1D000029201273B4241D12A680B4000D1C2E2C2
:10C1E000B6185342ED18854200D2BAE263699D4207
:10C1F00000D102E1D108202900D380E0A868019095
:10C20000E868009003910098854201D100F0B4FAEB
:10C210000198854201D100F0AFFA68680721884390
:10C220000399C900884201D000F0A6FA0398C00023
:10C230002018019902002832914205D022699142CA
:10C240005AD3C968A94257D10099019A914243D162
:10C250002168039A01209040814321600298854221
:10C2600000D37EE24068384200D17AE2810700D5EF
:10C27000C5E10299A269914200D0CEE0E06881193F
:10C28000E160A5610F436F606069854202D10020C3
:10C290006061A060E069884200D364E20D480068F4
:10C2A000002801D1FEF71AFFA169002900D15AE246
:10C2B000E068292802D32000FEF702FFE069E16868
:10C2C000884200D34FE20020C043E0614BE200BF50
:10C2D00054370020C03E00202830814206D0084656
:10C2E0002169884208D38068A84205D10098D060AF
:10C2F000019800998860B1E700F03EFAAEE7A969BD
:10C300000091EA68AA420DD0A9680192814228D31F
:10C31000C868A84225D19068A84222D1CA60019875
:10C32000816020E0290014310A680192002A09D1B5
:10C33000290010310A680192002A14D002E011008D
:10C340000A680192019A14321368002BF7D1019AFE
:10C3500010321368002BF2D1814202D30020086012
:10C3600001E000F009FA0098002800D176E7E869BA
:10C370008000201898214900401801688D420AD198
:10C3800001990160002915D16168EA690120904096
:10C390008143616062E700982169884208D300699F
:10C3A000A8420198009901D1086103E0486101E0C9
:10C3B00000F0E2F90198002800D14FE720690199C7
:10C3C000814299D30099019A91612969002908D085
:10C3D000814204D3019801610198886101E000F075
:10C3E000CBF96869002800D138E72169884283D3F6
:10C3F000019948610199816130E7029840680140E4
:10C40000032900D02AE7A66002984068B843029941
:10C41000486037436F60AE51A5E16269914207D130
:10C42000A0688019A060656107436F6028509AE199
:10C43000072188433618C00820284BD20299896802
:10C4400000910299C968039101900298039988426A
:10C4500001D100F091F902980099884201D100F0D1
:10C460008BF902984068072188430199C9008842E6
:10C4700001D000F081F90198C00020180099020055
:10C480002832914208D02269914200D2ACE0C968BA
:10C49000029A914200D0A7E00399009A914206D1F6
:10C4A0002168019A01209040814321609EE028305C
:10C4B000814209D008462169884200D294E0806810
:10C4C0000299884200D08FE00398D06000980399C9
:10C4D00088608BE00298806901900298C068029998
:10C4E000884212D0029989680090206981422CD339
:10C4F000C868029A904228D100988068904224D15E
:10C500000098C8600098816021E0029814300168AA
:10C510000091002909D1029810300168009100298A
:10C5200015D002E0080001680091009914310A68F2
:10C53000002AF7D1009910310A68002AF2D1216946
:10C54000884202D30021016001E000F015F9019852
:10C5500000284BD00298C06980002018982149001B
:10C5600040180299026891420BD10099016000299C
:10C5700017D161680298C2690120904081436160CF
:10C5800034E001982169884209D300690299884200
:10C590000098019901D1086103E0486101E000F0D1
:10C5A000EBF80098002821D02069009981421BD324
:10C5B0000199009A916102990969002908D0814284
:10C5C00004D3009801610098886101E000F0D4F87C
:10C5D00002984069002809D02169884204D3009953
:10C5E00048610099816101E000F0C6F80120304304
:10C5F0006860AE516069854208D1A660B3E0B84377
:10C6000002994860012030436860AE51F00820284C
:10C6100025D20090C0002018283001900290102EE2
:10C6200001D200F0A9F8206800990200CA403A40FF
:10C6300003D18F400743276008E001988068216993
:10C64000884201D3029001E000F096F801988560DD
:10C650000298C5600298A8600198E86083E0300AFB
:10C6600001D1002227E03904884201D31F2222E0B1
:10C67000FF21C9434118090C08221140009188404C
:10C680003B494118090C0422114001918840394965
:10C690004118090C022211400E22009BD21A019B64
:10C6A000D21A521A8840C00B10184100C01D320027
:10C6B000C2403A408A18900020189821490040183A
:10C6C0000090EA6100206861286161680B00D34036
:10C6D0003B4007D197400F43676000980560009882
:10C6E000A8611EE0009909681F2A01D1320006E006
:10C6F000192352089B1A32009A4000E039004B6817
:10C700000727BB43B3420FD0D30F9B00CB18103386
:10C7100052001F68002FF1D12069834210D31D60A1
:10C72000A961ED60AD600DE08A682369994207D385
:10C730009A4205D3D5608D60AA60E960A86101E0E6
:10C7400000F01AF8206A401E20620CD1E42040005C
:10C75000205800E080680028FCD10020C0432062FF
:10C7600001E000F009F800BF00BF05B0F0BD000017
:10C7700000F0FFFF00C0FFFF80B5012000F084F84B
:10C7800001BDF8B401684218436859085118009176
:10C790008168DB0701D54B46C918009B9A4202D13C
:10C7A0000C30F2BC70471378521C032403261E4041
:10C7B00002D11678F61C521C1D090F2D07D11578D1
:10C7C0000F35521C03E01778521C0F70491C761E5F
:10C7D000F9D1002DE1D01678521C9B081C40032C87
:10C7E00001D11478521C2302F3185C420B19AD1CC2
:10C7F000D3D01C785B1C0C70491C6D1ECDD0F8E7A3
:10C8000007490868002801D0002070470548072222
:10C810009043086004499143091A0160704700BFC2
:10C82000443F0020F7290020F02D0020124207D0BD
:10C830008B0706D00B78491C0370401C521EF7D89A
:10C840007047830706D00B78491C0370401C521EAA
:10C85000F9D1704770B4103A03D378C9103A78C050
:10C86000FBD2530701D318C918C001D508C908C0A5
:10C87000D20704D30B880380891C801C002A01D5B1
:10C880000B78037070BC704780B500BF00BF024AD0
:10C8900011001820ABBEFBE72600020070B50500B2
:10C8A0000C00002D02D1002C1AD001E0002C03D185
:10C8B000012070BD6D1C641C287801F0F4F806009E
:10C8C000207801F0F0F88642287802D10028F1D1D2
:10C8D00070BD01F0E8F80500207801F0E4F8281AAE
:10C8E00070BD000010B5FFF7DFFA002808D1974CA3
:10C8F0001020206003A001F0DFF805202060FEE793
:10C9000010BD00003E206D616C6C6F632066616934
:10C910006C65642E0D0A000070B5040001F0DEF8AD
:10C92000451C2800884949688847060001D1002035
:10C9300070BD2A002100FFF779FF300070BD10B5EF
:10C940002820814949688847040002D0282101F045
:10C95000FBF8200010BDF8B5040080277F007A4E58
:10C96000002C1CE02568E068384004D1A06800284D
:10C9700001D0FFF7F0FFE068384004D120690028BB
:10C9800001D0B1688847E068800504D4206A002897
:10C9900001D0B16888472000B16888472C00E1D1F8
:10C9A000F1BDF1B586B00C0000220023002600275F
:10C9B0000020674904AD03C568460CC0002501206E
:10C9C000029020782D2804D10020B04904AA03C287
:10C9D000641C2078302800D1641C20783138092864
:10C9E00016D20020B14932003B0001F0B1F8060038
:10C9F0000F002078303801F06DF932003B0001F073
:10CA000083F906000F00641C207830380A28E8D328
:10CA100020782E2823D1607830380A281FD2641C51
:10CA20000020A24932003B0001F092F806000F00FE
:10CA30002078303801F04EF932003B0001F064F903
:10CA400006000F00641C684603C800228F4B01F0EB
:10CA50005BF96A4603C2207830380A28E0D3207890
:10CA6000652801D0452813D1641C20782B2809D0D3
:10CA70002D2808D10020C043029003E00A214D4335
:10CA80002D18303D641C2078010030390A29F5D377
:10CA900004A803C832003B0001F05AF806000F005A
:10CAA00002984543280001F015F96A460CCA01F0C6
:10CAB0002BF902000B0000207C4901F065FC3200DC
:10CAC0003B0001F045F8069A183203C201F074FEEB
:10CAD0000699486103200699C860200007B0F0BDA0
:10CAE000F8B5040002D02068002801D10020F2BD72
:10CAF000A268891863688B4201DB8018F2BD491E69
:10CB000048100843811001430811084301120143F2
:10CB10000F140F437F1C634E38007168884705006F
:10CB2000B668206804D1B047002060602060F2BD84
:10CB3000626801002800FFF779FE2068B04767604F
:10CB40002560A0682818F2BD001F00200C250040B9
:10CB50000000F03F10B5002802D00168002901D183
:10CB6000002010BD8468081900F0B8FF201810BD1F
:10CB7000F8B505000C001830C0C8002000213200B4
:10CB80003B0001F042FE12D1002C04D00221200013
:10CB9000FFF7A6FF03E002204249496888470400E6
:10CBA00071D03BA001782170417861706BE06869B9
:10CBB00001F090F832003B0001F009F94900490802
:10CBC0000122394B01F033FE1DD23000390031A271
:10CBD0000CCA01F02CFE16D20022304B01F040FEB0
:10CBE00011D8002C04D015212000FFF779FF03E0B5
:10CBF00015202C4949688847040044D06A6928A157
:10CC000001F04CFE3FE0002C04D040212000FFF753
:10CC100067FF03E04020234949688847040032D079
:10CC20003000390001F056FE32003B0001F0CFF831
:10CC30004900490801221C4B01F0F9FD0CD23000DB
:10CC4000790049089CA20CCA01F0F1FD04D232001F
:10CC50003B0000BF16A113E030007900490898A2FC
:10CC60000CCA01F0E4FD04D30122974B01F0F8FD5A
:10CC700003D832003B0095A102E032003B0095A1B1
:10CC8000200001F00BFE2000F2BD00000000F0BF0C
:10CC9000300000000100C0FFFFFFDF410000E0C1E5
:10CCA00025640000001F00200000B03C000024406C
:10CCB000252E30660000000010B501000878020043
:10CCC0001300303B0A2B01D2303809E01300413BFE
:10CCD000062B01D2373803E0613A062A3DD2573895
:10CCE00000014A7813001C00303C0A2C01D2303A73
:10CCF00009E01C00413C062C01D2373A03E0613BBD
:10CD0000062B2AD2573A801800018A7813001C009B
:10CD1000303C0A2C01D2303A09E01C00413C062C80
:10CD200001D2373A03E0613B062B16D2573A8018FE
:10CD30000001C9780A001300303B0A2B02D23039B7
:10CD4000401810BD1300413B062B01D23739F7E7DD
:10CD5000613A062A01D25739F2E7002010BD0000DF
:10CD6000F1B582B00C00601C0021594A2378222BB7
:10CD700008D014600020FEBD0300581C1B785C2BFB
:10CD800000D1401C0378222B03D0002B01D0491C7A
:10CD9000F2D1481C5168884700900028EBD0601CF5
:10CDA000009C042702E02170401C641C01782229A9
:10CDB00076D00B0074D05C29F5D1451C2878622808
:10CDC0000AD066280AD06E280AD072280AD07428A1
:10CDD0000AD075280AD05FE008205DE00C205BE0F7
:10CDE0000A2059E00D2057E0092055E0681CFFF7A4
:10CDF00063FF06002D1DB0483018390288424DD31C
:10CE0000002E4BD0AD483018884216D268785C2886
:10CE100044D1A878752841D1E81CFFF74DFFAD1D1E
:10CE2000A54941183A02914238D2B102B24A0A40A9
:10CE30008005800D1043B90346180421802E02D2CC
:10CE40000121601C20E080224802864202D2022199
:10CE5000A01C13E04001864207D3E01CBF233340EF
:10CE600080241C430470B60901E00321E01C401E2D
:10CE7000BF23334080241C430470B609401EBF24E6
:10CE8000344022430270B609401E00BF12A2525C19
:10CE900032430270441801E02070641C681C85E76E
:10CEA000002121700178222900D1401C0099029AAA
:10CEB00011610299CF60FEBD44F3C2E4E4E9634C22
:10CEC0008DEDB5A0F7C6B03E65CDCD41256500001E
:10CED000001F0020256600000000C0E0F0F8FC0004
:10CEE000F3B581B000240020019D09E0202903DB77
:10CEF000222901D05C2902D10100012008436D1CC8
:10CF000029780A00F2D122270028019819D12C1A79
:10CF1000E01C0299002904D001000298FFF7E0FD0F
:10CF200002E076494968884706003FD03770751C93
:10CF30000199280001F0FAFC2F55002029194870AA
:10CF400073E0002811D10298002803D00321FFF7D5
:10CF5000C7FD03E00320694949688847060025D0DA
:10CF60000322A7A1FFF762FC5FE0054603E0202E45
:10CF700000DA641D6D1C2E78002E0AD0641C08D0C7
:10CF8000310000BF2AA001F0D9FC0028EFD0641CBA
:10CF9000F0E7E11C0298002802D0FFF7A1FD03E0B2
:10CFA0000800564949688847060001D10020FEBDA7
:10CFB000019D3770701C02E001706D1C401C2978C7
:10CFC0000A002FD0202903DB222901D05C29F3D1CC
:10CFD0005C210170441C2A786D1C082A10D0092A93
:10CFE00017D00A2A11D00C2A0DD00D2A0FD0222AD0
:10CFF00004D05C2A0FD12170601CE0E72770FBE7AA
:10D0000062202070F8E76620FBE76E20F9E77220C7
:10D01000F7E77420F5E700BF07A1200001F03EFC10
:10D02000601DCCE70770002141703000FEBD00009C
:10D03000225C080C0A0D09007525303478000000C8
:10D0400080B50069FFF74CFF02BD00E0401C0028DE
:10D0500004D001780A0001D02129F7DB7047F2B52E
:10D0600006001700FFF76BFC0400244D0020286029
:10D07000002C1FD03000FFF7E8FF0100200000F077
:10D080003FF8060003D12000FFF765FC0BE0002FFE
:10D090000BD0FFF7DAFF06003078002805D020001B
:10D0A000FFF759FC2E600020F2BD0098002800D048
:10D0B00006602000F2BD00000024FFFF0028FFFFF3
:10D0C00080B500220021FFF7CAFF02BD70B584B011
:10D0D00004000D00160028000849496888470090A0
:10D0E0000195002002906B4632000021200000F0E4
:10D0F00089F804B070BD000000FC0F00001F002084
:10D10000F8B505000C0079D0042200BF85A12000ED
:10D1100001F01EFC002802D10220E86015E0002783
:10D12000052200BF81A1200001F012FC002802D1DD
:10D13000EF60601DF2BD04227EA1200001F008FC1A
:10D14000002804D10120E8606861201DF2BD20782C
:10D150000100222904D121002800FFF701FEF2BDC1
:10D160002D2902D030380A2804D221002800FFF7E8
:10D1700018FCF2BD5B2938D126005B2932D105208D
:10D18000E860701CFFF761FF060030785D2827D04B
:10D19000FFF7D5FB0400A86030D03000FFF755FF43
:10D1A00001002000FFF7ACFFFFF74FFF060025D07E
:10D1B00030782C2812D1FFF7C2FB00281ED0206047
:10D1C00044600400701CFFF740FF01002000FFF7DF
:10D1D00097FFFFF73AFF0600EAD10FE05D2801D183
:10D1E000701CF2BD4248066008E07B2904D1210092
:10D1F000280000F095F9F2BD3D4804600020F2BD22
:10D2000022220000F4B505000F0018000024002DB4
:10D2100001D10020F2BD002828D0E968C9B2062952
:10D2200064D801A2525C97441626063A3EA8B6007E
:10D230000521FFF755FC040058D0052239A10EE066
:10D240000621FFF74DFC040050D0062237A106E06E
:10D250000521FFF745FC040048D0052235A1FFF762
:10D26000E5FA43E001002AE001002DE01026AB487A
:10D27000066000BF1FA000F01FFC0520A749086042
:10D280000E60287BC1B200BF1FA000F015FC052076
:10D29000A2490860E868C0B2062827D801A1095C45
:10D2A0008F4400BF0C100818222C3A001DA002E089
:10D2B0001EA000E01FA0FFF72FFB16E000212800B2
:10D2C000FFF756FC11E000212800FFF7B9FE0CE043
:10D2D0000023009A3900280000F030F805E0002310
:10D2E000009A3900280000F07FF904002000F2BD08
:10D2F000001F00203E205072696E7442756666659C
:10D300007220320D0A0000003E20286974656D2DE0
:10D310003E7479706529202620323535203D202540
:10D32000640D0A006E756C6C0000000066616C7321
:10D33000650000007472756500000000FFB585B0DF
:10D3400005268768002001900025002403E001984D
:10D35000401C01903F68002FF9D1A1484168019815
:10D36000002808980ED1002803D00321FFF7B8FB4E
:10D3700001E003208847060003D0032299A1FFF7AC
:10D3800055FAC7E000284BD085680121FFF7A8FBBC
:10D3900004004CD05B20207008988068401C0899DD
:10D3A00088600598876817E00126711C0898FFF7C8
:10D3B00097FB04003BD02C202070641C07980028A9
:10D3C00002D020202070641C002020700898806803
:10D3D0008019089988603F68002F13D0089B079A2E
:10D3E0000699491C3800FFF70DFF0898FFF7B2FBBC
:10D3F0000899886038680028EDD007980028D3D0B5
:10D400000226D2E702210898FFF76AFB04000ED03B
:10D410005D2020700020607008980068461979E04F
:10D4200001988700380088470090002801D100202B
:10D4300071E0390000F088FB0598876801E001245D
:10D440003F68002F18D0002C16D10023079A0699A8
:10D45000491C3800FFF7D6FE0099AA0088506D1CC1
:10D460000028ECD000F03AFB0799002900D00121F8
:10D4700030184618B61CE3E7002C05D13000584997
:10D480004968884706000FD1002505E0AA008058AA
:10D49000002800D088476D1C51488168019885425A
:10D4A0000098F3DB8847C2E75B203070741C0020D3
:10D4B0002070002523E0A900401803900768380079
:10D4C00000F00CFB0290024639002000FFF7AEF995
:10D4D000029824180198401E85420AD02C20207002
:10D4E000641C0798002802D020202070641C0020B3
:10D4F0002070039800683A49896888476D1C019834
:10D5000085420098D7DB3649896888475D202070BE
:10D5100000206070300009B0F0BD00000C25004014
:10D5200070B504000E0030787B2856D10620E060EC
:10D53000701CFFF78AFD060030787D284BD0FFF77E
:10D54000FEF90500A06042D03000FFF77EFD01002B
:10D550002800FFF705FCFFF778FD060037D02869A3
:10D56000286200242C6130783A2836D1701CFFF7ED
:10D570006CFD01002800FFF7C3FDFFF766FD060004
:10D5800025D030782C2824D1FFF7D9F900281ED0D7
:10D59000286045600500701CFFF757FD010028005A
:10D5A000FFF7DEFBFFF751FD060010D02869286267
:10D5B0002C6130783A2810D1701CFFF746FD01002D
:10D5C0002800FFF79DFDFFF740FD0600D9D10020A0
:10D5D00070BD7D2801D1701C70BD01480660F6E762
:10D5E000001F00205B5D0000FDB586B00F00072521
:10D5F0000026806800900496059605E00498401C7B
:10D60000049000980068009000980028F6D1B14876
:10D6100041680498002829D1381D089B002B08D0A8
:10D620000799002900D1032001001846FFF758FA96
:10D6300004E0079B002B00D103208847050062D03F
:10D640007B2028706C1C079800280BD00A202070C3
:10D65000641C7F1E012F05DB09223900200000F029
:10D6600045FAE4197D20207066709DE17F1C0898C2
:10D67000002800D1AAE086680798002801D002257A
:10D6800000E00125691C0898FFF72AFA04003AD047
:10D690007B202070641C0798002802D00A2020708C
:10D6A000641C0020207008988068401908998860E0
:10D6B000069880681BE0691C0898FFF711FA0400BF
:10D6C00021D000980068002802D02C202070641C13
:10D6D0000798002802D00A202070641C00202070C7
:10D6E0000898806840190899886000980068009040
:10D6F00000980028079849D0002810D039000898D1
:10D70000FFF7EEF9040068D0012F03DB092239008E
:10D7100000F0ECF908988068C019089988600899A9
:10D720000098006AFFF7DCFB0898FFF713FA0899E6
:10D7300088600798002801D0022500E00125290013
:10D740000898FFF7CDF9040047D03A2020700798D9
:10D75000002801D009206070089880684019089955
:10D760008860089B079A39000098FFF74BFD0898DE
:10D77000FFF7F0F908998860079D002D00D001257A
:10D7800000980068002896D06D1C94E7002801D00E
:10D79000791C00E002210898FFF7A2F904001CD0D0
:10D7A000079800280AD000267F1E012F06DB0922D9
:10D7B0003900200000F09AF9E4193E007D20207025
:10D7C00000206070089800688519EDE004988400D6
:10D7D000200088470190002801D10020E5E02000CA
:10D7E0003C49496888470390002804D10198394989
:10D7F00089688847F1E72100019800F0A5F9210028
:10D80000039800F0A1F90698806800900798002816
:10D8100006D0FD1D04E001200590009800680090EE
:10D820000098002827D00021006AFFF759FB040068
:10D830000398B10044500296761C0023079A3900E1
:10D840000098FFF7DFFC0199029A92008850002CA3
:10D85000E1D00028DFD000F041F90290200000F074
:10D860003DF90799002900D0B91C029AAA1810188E
:10D870004518AD1CD1E70598002812D1280015499C
:10D880004968884705000CD07B2028706C1C0798DD
:10D89000002802D00A202070641C0020207000267E
:10D8A00067E000260DE0B40003980059002800D07E
:10D8B000884701980059002802D00649896888479E
:10D8C000761C0448816804988642ECDB03988847FC
:10D8D0008CE700BF001F00200798002809D00097A0
:10D8E000012F06DB09223946200000F0FFF80098DE
:10D8F00024180398B100401805900068009000F0CB
:10D90000EDF80290024600992000FEF78FFF029882
:10D9100020183A210170441C0798002802D00920E1
:10D920002070641C0198B10040180090016820002C
:10D9300000F0FCFF0098006800F0D0F8241804986C
:10D94000401E864202D02C202070641C07980028BC
:10D9500002D00A202070641C002020700598006806
:10D960003B49896888470098006839498968884731
:10D97000761C04988642AFDB03983549896888474E
:10D9800001983349896888470798002808D07F1E86
:10D99000012F05DB09223900200000F0A7F8E41967
:10D9A0007D20207000206070280009B0F0BD38B5DF
:10D9B0000C00856800E02D68002D05D02100286A44
:10D9C000FEF76CFF0028F6D1280032BD01604860E8
:10D9D00070478268002900D1704780B5002A02D1C3
:10D9E000816001BD020010680028FBD11000FFF724
:10D9F000EDFF01BD70B504000D0016000DD0306ABA
:10DA0000002802D01249896888472800FEF784FF61
:10DA1000306231002000FFF7DCFF70BDF8B5070071
:10DA20000D00140012D08026B600E068304005D109
:10DA3000206A002802D00649896888472562E06884
:10DA40000643E66021003800FFF7C3FFF1BD000088
:10DA5000001F002070B504000D00FEF770FF0600E7
:10DA600009D00320F0603000183030C020002900B9
:10DA700000F0A2FE7061300070BD38B50400FEF702
:10DA80005EFF050005D00420E8602000FEF744FF9B
:10DA90002861280032BD80B5FEF751FF002801D073
:10DAA0000621C16002BD10B50400012000F066FF30
:10DAB000200000F06DFF10BD0EB400B582B003A9C8
:10DAC00000916B4602000121034878440A3000F0BF
:10DAD00065FF029906B008478DB50000010000E01F
:10DAE000491C0A78002AFBD1081A70471206130A4B
:10DAF0001A43130C1A4300BF094205D083070BD009
:10DB00000270401C491EF9D1704700001206130A2A
:10DB10001A43130C1A4300BF130030B4140015004D
:10DB2000103902D310393CC0FCD2490700D30CC0D5
:10DB300000D504C0890002D30280801C002900D5D2
:10DB4000027030BC704700000022D5E70022E3E7F6
:10DB5000F0B50E005E400125ED072E40B446AE0A3A
:10DB6000DF184C18F44208D2F7420ED2640D01D0EF
:10DB70007F0D12D100206146F0BD05D1F74201D8DA
:10DB80007F0D05D10020C143F0BDFBD1640DF9D05C
:10DB90000020C143490549088FE0E419C902DB02AE
:10DBA00029432B43DB0A460DC00231438E4630B475
:10DBB00087B295B27D432E0CADB2140C7C43A419F0
:10DBC000260C240425439CB27C43A419190C7943E8
:10DBD000270CC919A4B20F043C43090C000C97B2DE
:10DBE00047432E0CBE193543ADB2170C4743360CD4
:10DBF000BF19A6B2BF193E043543240C3E0C36199A
:10DC00009FB24743BF19BCB23E0C89191F0C474352
:10DC10007F183E043443390C704680B297B24743B4
:10DC20002E0CBE193543ADB2170C4743360CBF1945
:10DC3000A6B2BF193E043543240C3E0C36199FB2E0
:10DC40004743BF19BCB23E0C89191F0C47437F18CC
:10DC50003E043443390C77463F0C90B278432E0C87
:10DC600080190604ADB22E43050CA0B22D18120C7B
:10DC70007A435019020C80B2240CA4189AB27A4349
:10DC8000121914042043120C89181B0C7B43C91869
:10DC900030BCEF0A394203D1B61940414941641EF4
:10DCA0006F12BF0DE41B0BDBFF19BC4211DA240518
:10DCB00000274208AE417841614166463143F0BDDC
:10DCC000641C05D1401C6141CF0201D34908F4E72F
:10DCD00050E75DE7010009D5F446404200F006F840
:10DCE0000122D20711436047010000BF4222120106
:10DCF000D21E004207D002D4521E0018FCD5C10A21
:10DD00004005120589187047F0B40125ED070F0092
:10DD10005F404FD48B4200D1824205D98446100027
:10DD200062468C4619006346DF184C18640D7F0D5F
:10DD30003AD0661C760537D0E61B352E34DCDB0284
:10DD40002B43DB0A0C0DC9022943C912202E0DDB1F
:10DD50001700203E06D01F00F741F3405F40002629
:10DD6000012A7741C01871410DD217E01700F74121
:10DD7000F2405740F3415A40B340F3405A40002626
:10DD8000801859410AD3A21C52050FD0C207012F97
:10DD9000724117004008CB0718434908641C24054A
:10DDA0004208AF4170416141F0BC7047641C2105DD
:10DDB0000020F9E76B4010E06B40ABE7F742F3D18E
:10DDC000E943F1E72442EFD100200021ECE7F0B471
:10DDD0000125ED070F005F40EED40C00871A9C412F
:10DDE00005D2C01BA141D219634169406B40AE0A04
:10DDF000DF184C18F442E1D2640D7F0DE2D0E61B2F
:10DE0000362ED1DCDB022B43DB0AA4460C0DC90203
:10DE10002943C90A012E28DC04D1D6075208DF079E
:10DE20003A435B08EF0A76429041994114D0394257
:10DE30003BD1B61940414941761C394204D1761C88
:10DE4000001849413942FAD0B9436746B74208D968
:10DE5000A41B24052143A7E70042EAD13642E8D1BA
:10DE6000A2E7E40AE10700209EE7202E0BDD203E1A
:10DE70001F00F340F7415F40012A002257417E42D4
:10DE8000984191410BE01700F741F2405740F341B0
:10DE90005A40B340F3405A407E42904199410A03B0
:10DEA00003D2641EB619404149410027641E24056F
:10DEB0004208AE4178416141F0BC704710B5F02294
:10DEC0000F2018490B78012B1BD14B68034018D148
:10DED0008B68134202D1CC6814400CD0F0241C4053
:10DEE000102C02D1CC68144005D01340302B08D13F
:10DEF000CB68134005D10C4B0C4C2360E30B0C4C4E
:10DF000023600B78012B0CD14B68184009D188682D
:10DF10001040402805D1C868024002D101200549BF
:10DF2000086010BDE00F00F0DFFF07C004050040EF
:10DF3000186C004008060040F8B50FB48AB00CA871
:10DF400003C804AA03C20B984000400D75498842DB
:10DF50000CD10020694608800B98000304D10A9870
:10DF6000002801D1012513E0022511E001280CDB76
:10DF70000B99BF4A0A40BF4911430B916946BE4AFB
:10DF8000801A08800025ED4302E0002569460D80D7
:10DF9000002104A801F074FC04001498002802D0A9
:10DFA000002014990880002C06D10CA80CC8002071
:10DFB000002100F02AFC15D0002D16D5009E36B2A7
:10DFC000012E16D10AA803C80022AA4B00F01DFC9E
:10DFD00008D0012C0DD10AA80CC80020A74900F0D8
:10DFE00014FC2ED10020A649B3E1022D03D10AA8CA
:10DFF00004E0012C5CDB022C02D10CA803C8A8E1D0
:10E00000012D1CD10B9800280D9802D400284CD566
:10E0100035E0002809D4002C47D10021C94304A8C9
:10E0200001F02EFC002840D53CE0002C27D1002137
:10E03000C94304A801F024FC002820D51BE0012CD2
:10E040000AD1009E36B20D98002802D4012E2CDA97
:10E0500015E0012E13DA28E00D98002812D4002CC8
:10E060000DD10021C94304A801F00AFC002806D5FF
:10E070000B98002803D500208021090669E10020C3
:10E08000002166E101F03EFC22210160002C0CD150
:10E090000021C94304A801F0F3FB002805D50B9823
:10E0A000002802D50020AC4953E10020B54950E1D9
:10E0B0000B98002809D5002C07D501F023FC21215D
:10E0C00001600020C043410843E10AA803C80022C0
:10E0D00080235B0300F0C4FB01D807920CE00AA880
:10E0E00003C88022120651400AAA03C20021C94374
:10E0F00004A801F0C5FB0790012E15D10AA803C89A
:10E1000096A20CCA00F093FB0ED2002600245C4DB0
:10E110000AA80CC800208021C905FFF719FD0AAA2A
:10E1200003C21DE0FF0700000AA80CC800208D49AB
:10E13000FFF70EFD00224F4BFFF7E6FD00F03CFB22
:10E140000600203E3000FFF7C5FD0022864BFFF79A
:10E15000FFFC0022474BFFF7D7FD04000D007601BE
:10E160008DA0801906900AA803C822002B00FFF793
:10E170002EFE06000F000AA803C822002B00FFF79E
:10E18000C3FD02000B003000390001F0C3FB02AAFE
:10E1900003C202A803C802AA0CCAFFF7D9FC04AA4A
:10E1A00003C20AA8C0C004A803C801F015FC04AA51
:10E1B0000CCAFFF7CDFC0AAA0CCAFFF708FE06003E
:10E1C0000F0000202E4922002B00FFF700FE002246
:10E1D0008023DB05FFF7BCFC32003B00FFF794FD1A
:10E1E00002AA0CCAFFF7B4FC02000B000AA803C87D
:10E1F000FFF78AFD08AA03C208A803C85EA20CCADA
:10E2000001F088FB04AA03C2009800B2FFF762FD88
:10E2100006000F00069803C832003B00FFF774FDAC
:10E2200004AA0CCAFFF770FD04AA03C20CA80CC80C
:10E2300004A803C8FFF78CFC02AA03C202A803C803
:10E2400000224A4B00F0F3FA70D302A803C801225F
:10E25000474B00F005FB6CD902A803C8002200233D
:10E2600000F0E5FA02A80CC80CD2002003490BE02C
:10E27000FFFF0F800000E03FFE0300000000E0BF52
:10E280000000F03F00203B49FFF73EFD00F094FA0C
:10E290000400069803C832003B00FFF735FD0CAAC6
:10E2A0000CCAFFF755FC06000F002000FFF712FD17
:10E2B00002000B0030003900FFF789FD2EA20CCAC6
:10E2C000FFF746FC009001910698083003C8069AB3
:10E2D00010320CCAFFF718FD0CAA0CCAFFF738FC65
:10E2E00025A20CCAFFF734FC06000F0008A80CC8D2
:10E2F0000CA803C8FFF72CFC32003B00FFF704FD1D
:10E30000009A019BFFF700FD02AA03C2149800289F
:10E3100001D00480002400940022194B02A801F0CF
:10E32000ADFB002802D0012803D00AE00020002124
:10E3300001E00020134902AA03C201F0E3FA2221FE
:10E3400001600798002802A803C802D080221206A4
:10E3500051400FB0F0BD00000000F0FFCD3B7F66E4
:10E360009EA0E63F000050400000903F0000E0C04B
:10E370000000E0400000E03FEF39FAFE422EE63FA9
:10E380000000F03F0000F07F10B582B00024009440
:10E39000FFF7D2FD1CBD0000000000000000F0BF30
:10E3A000000000000000008000000000000000806D
:10E3B0000000000000000000000000C05294EEBF0A
:10E3C00000000048204E51BE000000F86467BCBC4D
:10E3D0000000000000000000000000208133EDBFBD
:10E3E00000000080B3DB14BE000000506706A3BC31
:10E3F0000000000000000000000000D0E9DCEBBFDE
:10E4000000000008C39259BE00000080B0D3B8BC21
:10E41000000000000000000000000070F98FEABF5B
:10E42000000000C0A51028BE000000E8BFC0B0BCBE
:10E43000000000000000000000000070284CE9BF50
:10E4400000000060134B42BE000000C03D20B8BC7D
:10E45000000000000000000000000050FA10E8BFBB
:10E46000000000C05FF62BBE000000905C71A7BCEE
:10E47000000000000000000000000020FCDDE6BFFE
:10E48000000000C0F8F154BE00000018E9F6B9BC65
:10E490000000000000000000000000D0C3B2E5BF93
:10E4A00000000070E43254BE00000050DB06B4BC33
:10E4B000000000000000000000000010EF8EE4BF2C
:10E4C00000000020F36252BE000000C02A879ABC00
:10E4D0000000000000000000000000B02272E3BF56
:10E4E000000000F0E8E056BE00000028352DBDBC5D
:10E4F0000000000000000000000000000A5CE2BF15
:10E50000000000B0FA8E41BE00000040AE6FBDBCFE
:10E51000000000000000000000000000564CE1BFB9
:10E52000000000F015CD5FBE00000000141C90BC80
:10E53000000000000000000000000040BD42E0BFFD
:10E5400000000030F93457BE000000E06C1E93BCA0
:10E550000000000000000000000000E0F57DDEBFCC
:10E56000000000B08A535EBE00000080DA77AABCCB
:10E570000000000000000000000000C09D81DCBF22
:10E5800000000000FFA226BE0000006057E2B0BC01
:10E59000000000000000000000000060F98FDABFFA
:10E5A000000000580A8151BE000000F05F60B8BC56
:10E5B00000000000000000000000000098A8D8BF84
:10E5C000000000607A7F45BE000000D05433A3BC39
:10E5D0000000000000000000000000600FCBD6BF6C
:10E5E000000000D091CB40BE000000406D1BA0BCDD
:10E5F0000000000000000000000000A0FBF6D4BFF7
:10E6000000000098C5CE52BE000000003A397EBC22
:10E610000000000000000000000000E0FE2BD3BF5F
:10E620000000004073872BBE00000000926879BC98
:10E63000000000000000000000000040C069D1BFE1
:10E6400000000058F16353BE00000080438D7CBC85
:10E65000000000000000000000000080D85FCFBF75
:10E66000000000181F8354BE000000B03F42A2BC4F
:10E6700000000000000000000000008067FCCBBF2D
:10E6800000000060FAFF53BE00000050E00DB8BC6F
:10E6900000000000000000000000000098A8C8BFB3
:10E6A000000000607A7F35BE000000C0543393BC88
:10E6B000000000000000000000000000DC63C5BF97
:10E6C00000000058D6FF54BE00000000396490BC22
:10E6D0000000000000000000000000C0AD2DC2BF1F
:10E6E00000000080A45915BE000000E0484BABBC00
:10E6F0000000000000000000000000801A0BBEBFF8
:10E7000000000050BF3C5ABE000000A0B364B6BC7D
:10E7100000000000000000000000008004D6B7BF29
:10E7200000000040BBCF36BE0000008076CEA8BC03
:10E7300000000000000000000000008032BBB1BFFC
:10E74000000000402A0043BE00000028C60CBDBCEB
:10E750000000000000000000000000009473A7BF4C
:10E76000000000182B3B59BE000000C0E55DA5BCB1
:10E77000000000000000000000000000EE4397BF12
:10E78000000000A0E6C340BE00000020958DB5BC8F
:10E7900000000000000000000000000000000080F9
:10E7A0000000000000000080000000000000008069
:10E7B0000000000000000000F4464A1805D200F0F6
:10E7C0000FF801D580174008604700F009F80121D3
:10E7D000C907884200D90800404260474A1812D24F
:10E7E000400DC90208430121C9070843520D4021C9
:10E7F0000901521A521C06D452421F3201D4D04091
:10E800007047C01770470020704790420ED1A44651
:10E810000C001C430128644107D0994205D14C00EB
:10E820006415641C644000D30C036446704730B424
:10E83000012464054D00EC420BD85D00EC4208D881
:10E840000C001C4364000443144304D2994200D1D9
:10E85000904230BC7047FCD08B42FAD18242F8E73C
:10E8600030B4012464054D00EC420BD85D00EC424D
:10E8700008D80C001C4364000443144304D28B42A8
:10E8800000D1824230BC7047FCD09942FAD190420C
:10E89000F8E70268531C0360117070470CB41CB594
:10E8A000040004A80190009401AB0A0069460848DE
:10E8B00078441C3000F072F80021009A1170002892
:10E8C00001D40098001B02B0019910BC03B00847A6
:10E8D000C3FFFFFF4A00520DFF239B009B1CD21A6F
:10E8E00019DD35239B1A1DDD1300153B09DA9B4109
:10E8F000DB0AD340094201D5401E5941002099430B
:10E9000070470022D243DA40094202D50023801822
:10E910005941904370474B00034300D0024900D255
:10E9200000210020704700000000F0BF002300E03D
:10E930005B1CCA5C002AC254FAD17047C9B200E01D
:10E94000401C02788A4202D0002AF9D10020704788
:10E9500010B402E0401C491C521E002A0BD00B7858
:10E9600004789C4205D002D20020C04304E001207C
:10E9700002E0002CEED1002010BC704710B504005E
:10E98000024801F0F7F9A100405810BD0826002008
:10E99000010041391A2900D220307047F1B5A4B0E6
:10E9A00014001F0014ADA9600020E8620AE0A86806
:10E9B000249A9047A860002800D1CFE2E86A401C62
:10E9C000E862641C2178080001D1E86AC8E22529C0
:10E9D000EDD100206861A861E86128626862A862E0
:10E9E00002E0010001200843641C21782029F8D0AE
:10E9F00023290ED02B2904D02D2907D030290BD064
:10EA00000DE001000220084380B2EDE70100042080
:10EA1000F9E701000820F6E701001020F3E72A29B2
:10EA20000FD1396839600A68091D39606A63002AA4
:10EA300005D55142696301000420084380B2641C7B
:10EA400012E0002169630AE06A6B794B9A4205D0B3
:10EA500093009A185200511830396963641C217868
:10EA60000A00303A0A2AEFD321782E2903D0002158
:10EA7000C94329631EE0641C21782A2907D139681B
:10EA800039600A68091D39602A63641C12E000219C
:10EA900029630AE02A6B664B9A4205D093009A18C4
:10EAA0005200511830392963641C21780A00303A29
:10EAB0000A2AEFD3288726783100044878440C309E
:10EAC000FFF73CFF002803D0641C02E080A5000093
:10EAD00000263A202E54285C682804D12178682921
:10EAE00001D1622005E06C2806D120786C2803D182
:10EAF00071203A216854641C05A828612678641C9A
:10EB0000300025382AD01C3800D1D8E0001F022858
:10EB100000D8D4E0133800D1F6E0093800D1CEE0B7
:10EB2000801E00D15AE1401E00D134E1401E02286F
:10EB300000D8C4E0001F00D12DE1401F00D190E0BB
:10EB4000401E00D1E0E0401E27D0C01E0BD0801E2A
:10EB500000D1D9E0C01E00D1D6E049E125206946A8
:10EB6000087501204EE1386838600168001D386082
:10EB7000E9602E6B002E03D50846FEF7AFFF0AE0D2
:10EB800032000021E86801F0F6F8002802D0E968B8
:10EB9000401A00E03000A86135E13868386002684A
:10EBA000001D38600020C0430021104014AA03C299
:10EBB00005A8E860286900903C2214A803C802ABAD
:10EBC00003C302A803C8002904D1002802D1286B7E
:10EBD00000281DD0521E02A803C80007000F3030C5
:10EBE000C0B23A2800DB27300099885402A803C835
:10EBF00000090B071843090902AB03C302A803C8A5
:10EC000001D1002804D0E868009989188842E1D32E
:10EC10003C20801AA86100998918E960296B884214
:10EC20000ADA081A2862288F024901402987EAE097
:10EC3000FFFFFF7FEFFF0000002900D4E3E0382151
:10EC4000695C14220A40102A00D0DCE0696B6A6912
:10EC5000891A2A6A891A0A1A012A00DAD3E02A6272
:10EC6000D1E03A20285C622819D0682806D06A28AA
:10EC70000CD06C281BD0712808D018E03868386098
:10EC80000168001D3860E86A0880BCE038683860B8
:10EC90000268001D3860E86AC11703C2B3E0386833
:10ECA00038600168001D3860E86A0870ABE03868B9
:10ECB00038600168001D3860E86A0860A3E03A68BF
:10ECC000D21D072082433A6003CA3A6014AA03C2E5
:10ECD000002902D568692D2109E0288F810702D516
:10ECE00068692B2103E0C00705D56869202105AAC2
:10ECF0001154401C686105A869694018E86031003A
:10ED000014A800F0FBF97EE03A20285C6C280BD0B8
:10ED1000712801D06A2807D13A68D21D07208243A2
:10ED20003A6003CA3A6005E0396839600868091D2D
:10ED30003960002114AA03C23A20285C682803D154
:10ED400014A803C880B20BE0622803D114A803C83A
:10ED5000C0B205E0742801D07A2804D114A803C8F1
:10ED6000002114AA03C23820285C00072DD514A85E
:10ED700003C8002901D1002827D02020304378285B
:10ED800023D16869302105AA1154401C411C6961D6
:10ED900005A90E5419E039003A20285C00F0E2F889
:10EDA00014AA03C2002902DA68692D2109E0288F1C
:10EDB000810702D568692B2103E0C00705D5686982
:10EDC000202105AA1154401C686105A869694018F2
:10EDD000E860310014A800F0F9F814E0012068613F
:10EDE000386838600168001D3860684601750AE0BF
:10EDF00025206946087501206861300003D005A808
:10EE0000467002206861686B6969401A296A401A75
:10EE1000A969401A696A401AE969401AA96A401A40
:10EE200004903820285C400711D4202069460871DE
:10EE3000049801280BDB049E012301AA14A924983D
:10EE400000F005FD002800D088E0761EF4D1686946
:10EE500005AE00280FD000903178A868249A90471A
:10EE6000A86000287AD0E86A401CE862761C009806
:10EE7000401E0090F0D13020694608712E6A012EA4
:10EE800009DB012301AA14A9249800F0E0FC002862
:10EE900064D1761EF5D1EE68A86900280FD00090E5
:10EEA0003178A868249A9047A860002856D0E86A6C
:10EEB000401CE862761C0098401E0090F0D1302083
:10EEC000694608716E6A012E09DB012301AA14A9A3
:10EED000249800F0BCFC002840D1761EF5D1E868EB
:10EEE000A9694618E86900280FD000903178A86811
:10EEF000249A9047A860002830D0E86A401CE86255
:10EF0000761C0098401E0090F0D1302069460871B0
:10EF1000AE6A012E09DB012301AA14A9249800F08E
:10EF200096FC00281AD1761EF5D13820285C4007BF
:10EF300000D447E52020694608710498012800DACA
:10EF400040E5049E012301AA14A9249800F07FFC47
:10EF5000002803D1761E00D134E5F3E70020C0433A
:10EF600025B0F0BD0A00622822D0682819D06A288E
:10EF700008D06C2823D0712804D074281FD07A2898
:10EF800008D01CE01368DB1D07208343136003CB0C
:10EF900013607047116811600868091D1160002135
:10EFA0007047116811600868091D116000B20BE01C
:10EFB000116811600868091D116040B204E0116811
:10EFC00011600868091D1160C1177047F3B583B05F
:10EFD000006900906846027C6F2A01D1082406E08F
:10EFE00020211143782901D00A2400E010243C2577
:10EFF000039803C806000F00642A01D0692A07D1CC
:10F00000002905DA00200021801BB94106000F000D
:10F01000002F10D1002E0ED10398006B00280AD1CA
:10F02000082C3AD103983821405C000735D53B25A0
:10F030003020009930E06D1E01953000390022002B
:10F04000E31700F0A4FE3032D2B23A2A03DB68465E
:10F05000007C5138121800984255300039002200C7
:10F06000E31700F094FE06000F0001D1002E05D03A
:10F070000398C068009949198842DCD3082C0CD148
:10F0800003983821405C000707D50098405D302880
:10F0900003D06D1E3020009948553C20401B039939
:10F0A000886100994919039AD1600399096B8842D4
:10F0B00009DA081A039908620398008F0E49014083
:10F0C0000398018715E0002913D503993822895C3C
:10F0D00014220A40102A0CD10399496B039A5269F1
:10F0E000891A039A126A891A0D1A012D01DB0398F5
:10F0F000056205B0F0BD0000EFFF0000F3B591B070
:10F1000006AA03C802AB03C312A80078202101435A
:10F11000009161290BD01198006B002801D50620C1
:10F1200003E004D1672902D10120119908631198E5
:10F1300040684100490DA64B994225D1000310D1EA
:10F140001198006800280CD103201199886112A839
:10F15000007861381A283AD31F4878447A300090F2
:10F160000BE003201199886112A8007861381A28F1
:10F1700029D31A48784464300090032200991198EA
:10F18000C068FDF753FBE9E1012919DB914B03400E
:10F1900091481843119B586090480D1A0026F64379
:10F1A0000098612827D11198C06830210170811C16
:10F1B000119BD96012A90978612915D1782114E031
:10F1C00000260025ECE7064878441430D4E70548CB
:10F1D00078441030C3E700BF889E00007C9E00008A
:10F1E000749E0000789E000058214170119840697B
:10F1F000801C11994861002E03D100246846868046
:10F20000A3E10098612800D09EE01198046B002CC7
:10F2100001D5212400E0641C24B2601C00901198E8
:10F22000C0C802A803C800220023FFF700FB02D2D7
:10F2300080200006474002A8C0C0281F6946888079
:10F2400000260E7606A8471C0098012835DB02A888
:10F2500003C8002280235B03FFF702FB2DD81C218B
:10F2600002A800F0C9FD02A803C8FFF7A5FA05002F
:10F270000098C01F009001280ADB2800FEF72AFD35
:10F2800002000B0002A803C8FEF7A1FD02AA03C2F8
:10F29000F81D072104E0401E2A07120F02702D11ED
:10F2A000012D01DB491EF6D5491E02D4401E067011
:10F2B000FAE7C71D00980128C9DA06A8401C391AC8
:10F2C00006A8421CA14200DA0C0024B2200032D46D
:10F2D000884205DA06A909184978082900DB0F26B3
:10F2E00006A9091801E0641E491E401E0B78B342AE
:10F2F000F9D00F2E04D106A909184B785B1C4B706E
:10F30000002806D506AA641C019800B2001D6946B3
:10F31000888024B2601E0ED411180B783033DBB213
:10F320003A2B03DB12AD2D783A3D5B190B70401E72
:10F33000491E0028F1D51198006B002800D404E183
:10F34000601E1199086300E102A803C8002200238F
:10F35000FFF76DFA06D202A803C8802212065140B8
:10F3600002AA03C22DB27E4868437E4900F09AFD8E
:10F37000694688800720019909B2421A00207A491B
:10F38000012A20DB049202AA30CA00260F0004984A
:10F39000C00707D532003B0020002900FEF7D8FB4C
:10F3A00004000D0004984010049030003900320031
:10F3B0003B00FEF7CDFB06000F0004980028E6D1C5
:10F3C00002A830C029E054420026684F19E000BF6F
:10F3D000FF070000FFFF0F800000E03FFE0300007A
:10F3E000E00707D504A803C832003B00FEF7B0FBD6
:10F3F00006000F00641004A803C804AA0CCAFEF794
:10F40000A7FB04AA03C2002CEAD102A803C8320059
:10F410003B0000F07FFA02AA03C20098662803D1DD
:10F42000019800B20A3000E006201199096B081813
:10F430000490142801DB13200490302069460876DC
:10F4400006A8441C049801283BDB02A803C8FFF768
:10F45000C5F906000834042530000A2100F025FD16
:10F460000F0030000A2100F020FD06003037601E3A
:10F47000077030000A2100F018FD0F0030000A214B
:10F4800000F013FD0600A41E303727706D1EE3D177
:10F4900008340498083804900128D3DB02A803C874
:10F4A000FFF79CF9FEF720FC02000B0002A803C83E
:10F4B000FEF78DFC00222E4BFEF74AFB02AA03C288
:10F4C000C3E706A8401C201A06A94A1C6B4605E0A3
:10F4D000401E019909B2491E9980521C11783029A9
:10F4E000F6D00099662903D1019909B2491C04E0BC
:10F4F000652901D1012100E00021119B1B6B5C18E3
:10F5000024B2A04200DA040024B221001DD48142BA
:10F5100004DA505C352801DB392000E03020531834
:10F5200000E0641E5B1E491E1D788542F9D0392813
:10F5300002D1505C401C5054002906D5521E641C58
:10F54000019800B2401C69468880019800B2009082
:10F5500023B212A80178119800F00CF813B0F0BD96
:10F5600097750000A0860100000024400000F03FD5
:10F5700084D79741F3B587B015001C0000F005FD56
:10F580000090406A0078694608710798076B012C63
:10F5900001DA0124ADA508A80178202008430E9EB9
:10F5A000662801D1761C17E0672800D09EE0032171
:10F5B000C9438E4200DA9DE0BE4200DB9AE0761C31
:10F5C00007983821405C000702D4BC4200DA2700CB
:10F5D00036B2BF1B00D50027079880690799C96814
:10F5E0000918009136B2012E2EDA401C3021009A03
:10F5F0001170012F04DA07993822895C090705D5B3
:10F6000069460979079AD2681154401C07998861A4
:10F610007042874200DA7E4236B2704207994862F1
:10F62000BF19A74200DA3C0024B20798C461220047
:10F6300029000798C068079B9B69C018FDF7F6F87A
:10F64000381B07998862E2E0B44220DA22002900E0
:10F650000098FDF7EBF8079989690919079A9161F4
:10F66000301B079A5062012F04DA07983822805C19
:10F67000000709D568460079079AD2685054079860
:10F68000C069401C0799C86107988762BFE03200D3
:10F6900029000098FDF7CAF8079880698019A41B13
:10F6A000012F04DA07993822895C090705D56946D4
:10F6B0000979079AD2681154401C0799886124B2CD
:10F6C000A74200DA3C0024B22200A9190798C068BA
:10F6D000079B9B69C018FDF7A9F807988069001976
:10F6E00007998861381B0799486290E0612914D115
:10F6F000702015E0BC4205DA07993822895C0907B9
:10F7000000D427007F1E00D5002708A800786728AE
:10F7100001D1652004E0452002E0412902D15020BA
:10F7200008A9087007988069411C079A9161297897
:10F73000079AD2681154681C0090012F04DA0798C8
:10F740003821405C000720D507988169481C079A3A
:10F7500090616A461279079BDB685A54012F14DBCB
:10F76000641E24B2A74200DA3C0024B222000099B1
:10F77000079BDB681818FDF759F80798806900198E
:10F7800007998861381B079948620798C0680799EC
:10F790008969411808A800780870300003D42B202C
:10F7A00048708D1C03E02D224A708D1C46420024B7
:10F7B00004AF08E00A2202A800F002FC03983870A7
:10F7C000029E641C7F1C31B20129F3DA022C08DA94
:10F7D00008A8007820210143652902D13020287033
:10F7E0006D1C002C09D1302028706D1C07E0641EB0
:10F7F00004A8005D303028706D1C012CF7DA0798E2
:10F80000C068079989694018281A0799C86107983C
:10F810003821405C14210140102914D10798406917
:10F820000799896940180799496A40180799C96971
:10F8300040180799896A40180799496B884202DA8B
:10F84000081A0799086209B0F0BD00003000F1B550
:10F850000E0014000027002B0FD01D002178B06887
:10F86000009A9047B060002806D0F06A401CF06211
:10F87000641C6D1E01D0F1E7FF433800F2BDFEE7C6
:10F8800042685200520D1D4B9A4209D1416809034A
:10F8900004D10068002801D1012070470220704780
:10F8A00043685B0028D0164B9A1A521A012A23DBB0
:10F8B000352A07DB41688022120611404160002191
:10F8C000016016E00121D306DB0E9940491E920625
:10F8D00008D542680A4041685140416003681343BB
:10F8E000002103E003680B40016859400160002BD0
:10F8F00002D00020C043704700207047FF0700007F
:10F900003304000080B5024800F034FA02BD000064
:10F91000FC250020F0B40E005E400125ED072E40CE
:10F92000B446AE0ADF184C18F4423BD2F74241D23B
:10F93000640D43D07F0D38D0E41BC902DB0229439C
:10F940002B43CF0ADB0A0600B61A9F4104D2641E7D
:10F95000B6197F41B6185F416812800D241800184F
:10F96000844222DAE80C0021B6197F41B61A9F4181
:10F9700002D2B6185F413F1C40414941F4D3241CD8
:10F9800021DD2405B6197F41B61A9F4105D33743BF
:10F99000C60737430026012F704161416646314357
:10F9A000F0BC7047FCD1F74205D20020C1434905A5
:10F9B0004908F3E704D00020C143F1E77F0DFAD0F6
:10F9C00000206146ECE72442FAD1401C61410F035C
:10F9D000F6D30020E2E7FEE738B504000D0019A0D9
:10F9E00003C822002B00FEF7B3F818A20CCAFEF7DA
:10F9F0008BF922002B00FEF7ABF816A20CCAFEF71B
:10FA000083F922002B00FEF7A3F814A20CCAFEF71C
:10FA10007BF922002B00FEF79BF812A20CCAFEF71E
:10FA200073F922002B00FEF793F810A20CCAFEF720
:10FA30006BF922002B00FEF78BF80EA20CCAFEF722
:10FA400063F934BDF7DE29BFD8F8C23FF4B3FECC6A
:10FA50001A99C33F62CB68D96F46C73FC6C912DA4D
:10FA6000C471CC3F4AE98A942449D23FF75F979901
:10FA70009999D93FBC5555555555E53FF1B586B0D7
:10FA800014001D00C0C86846C0C0684603C84800CE
:10FA9000400DA04A904206D0002802D00021C94360
:10FAA0000AE0002108E00B031B0B684603C818435B
:10FAB00001D0022100E001216B005B0D934206D0D2
:10FAC000002B02D00020C04309E0002007E02A03F9
:10FAD000120B2000104301D0022000E001200A0098
:10FAE00001D500284AD4022926D0022802D106983E
:10FAF00030C021E000280AD100228A4B30003900B2
:10FB0000FEF783FE0FD0069830C00020FDE00128EC
:10FB100014D10022804B30003900FEF776FE02D06F
:10FB2000069830C04BE0FFF7EDFE21210160002078
:10FB3000C0434108069A03C20220E6E000290FD123
:10FB4000069830C00C99069800F056F9040002D0CF
:10FB5000012C00D0D8E0FFF7D5FE22210160D3E0D0
:10FB60000022704B30003900FEF74FFE0DD120000F
:10FB70002900FDF7EDFF069A03C220E030003900AE
:10FB80000022664BFEF753FE08D200232000290016
:10FB9000FDF7DEFF069A03C20020B6E00122604BAB
:10FBA000FEF75EFE0DD800225E4B20002900FDF717
:10FBB000CFFF069A03C2FFF7A5FE222101600120B4
:10FBC000A3E059A20CCAFDF7C3FF00220023FEF7F1
:10FBD0002EFE01D2564B00E0654BFEF795F8FEF77E
:10FBE000EBFD0290FEF776F86A4603C2684603C84A
:10FBF00050A20CCAFDF7ACFF02000B003000390028
:10FC0000FEF7E5F806000F00684603C84BA20CCAD1
:10FC1000FDF79EFF02000B0030003900FEF7D7F819
:10FC200006000F0047A20CCAFEF71AFE07D80022F2
:10FC3000464BFEF7FCFD02D22000290054E03200C2
:10FC40003B00FDF785FF6A4603C2684603C840A231
:10FC50000CCAFDF77DFF40A20CCAFEF755F8020062
:10FC60000B00684603C8FDF773FF04AA03C2684689
:10FC700003C83BA20CCAFDF76BFF3BA20CCAFEF700
:10FC800043F802000B00684603C8FDF761FF00223D
:10FC9000374BFEF739F802000B0030003900FDF752
:10FCA00057FF06000F0004A80CC83000FEF72CF820
:10FCB0000022174BFEF728F80090019104A803C812
:10FCC00032003B00FEF783F80022114BFEF71CF8D0
:10FCD00002000B0000980199FFF71CFE02000B00C8
:10FCE00020002900FDF734FF069A03C202980C9900
:10FCF0004118069800F080F8040001D0012C03D1CF
:10FD0000FFF700FE22210160200007B0F0BD00BF18
:10FD10000000F03FFF0700000000F0FF00C89CC09B
:10FD200000C89C400000F07FFE822B654715F73F1E
:10FD30000000E0BF000000F8422EE63FF2E4D5BC30
:10FD4000E7E84B3EFFFFFFFFFFFF8FBC0000903C4A
:10FD5000112E5781A03F503F5843128C8F71BC3FEA
:10FD60004BE8A541B752013F0BBDF3DAE8708C3F79
:10FD70000000E03F7047C9B201E0401C521E002A5B
:10FD800003D003788B42F8D17047002070471242AD
:10FD900024D0994228D970B500251B4202D00C000E
:10FDA000002109E00024012649186441944200D34F
:10FDB000A41A7641F8D33100012601E0764109D238
:10FDC000001864416D41A41A9D41F7D2A4185D4109
:10FDD000B619F5D3300022002B0070BD1B42D8D1DC
:10FDE00008B500F0FDF808BD01D19042D3D2020061
:10FDF0000B0000210020704710B402005068400042
:10FE0000400D194B984207D15068000302D1106889
:10FE1000002811D0022025E0002823D001290DDB85
:10FE20001B1A99420AD35068002802D500200F49B6
:10FE300001E000200E4903C2012013E043428B423F
:10FE400009DA53680B4C1C40081800052043506029
:10FE50000020C04306E05068802109060840506039
:10FE60000020106010BC7047FF0700000000F0FF8A
:10FE70000000F07FFFFF0F80F446002804D44942C1
:10FE800000F013F8404260474042002905D45FD09B
:10FE900000F00BF8404249426047494200F005F843
:10FEA0004942604703460B43E6D40022030A8B42D3
:10FEB0000BD203098B4219D243088B422ED2411A2E
:10FEC00000D20146524110467047FF2209023FD03E
:10FED00012068B4205D3121209028B4201D3121271
:10FEE000090203098B4219D300E0090AC3098B42B6
:10FEF00001D3CB01C01A524183098B4201D38B013C
:10FF0000C01A524143098B4201D34B01C01A5241DE
:10FF100003098B4201D30B01C01A5241C3088B4223
:10FF200001D3CB00C01A524183088B4201D38B000E
:10FF3000C01A524143088B4201D34B00C01A5241B0
:10FF4000884200D3401A5241CFD201461046704732
:10FF500008B500F047F808BD80B51248FFF70AFF62
:10FF600011A1016041608160C160016141618161F5
:10FF70000EA242628162C162016341630CA282638C
:10FF80000DA2C2630164416401BD10B50548FFF7CD
:10FF9000F1FE04002068002801D1FFF7DDFF2000FA
:10FFA00010BD000074260020000000002E0000009C
:10FFB00066616C7365000000747275650000000076
:10FFC0007CB504000E00150030002900FFF76AFF21
:10FFD00000904543701B0190684603C803C473BD7D
:10FFE0007047FEE77047FEE710B5154A012100BFD4
:10FFF0001AA001F001FA134A012100BF18A001F074
:020000040002F8
:10000000FBF9114A002100BF16A001F0F5F90F4AD3
:10001000002100BF14A001F0EFF90D4A002100BF3C
:1000200012A001F0E9F90B4801F01CFC0A4C102069
:10003000206000BF0EA0FDF73FFD0520206010BD31
:10004000B5080200610702004D0A0200A90A020079
:10005000050B02003C1F00200C250040883B0020BF
:10006000A83B0020943D0020C03D0020C83B00205C
:100070003E2044657669636520636F6E74726F6CB1
:1000800020696E69742E0D0A00000000F8B500208A
:1000900000907F4C694600F075FD122826D100982B
:1000A000C0780006009989780904014300984078D7
:1000B00000020843009909780143616110207549E5
:1000C00008606169BE48FDF7F7FC052071490860CA
:1000D000012020712078002808D1207A022805D03C
:1000E000FA20C00001F09DFC00F038FA6078012889
:1000F0001DD1022060702069FDF7F0FCC821484343
:10010000FA2189004218530CD203480800218018B4
:100110005941FA2292000023FFF739FE0100002224
:100120002000583001F0A4F9206901F05BFDA548DA
:100130000168002903D0491E0160012515E001F086
:10014000EDFC032801D102250FE001F0E7FC0428B3
:1001500001D1032509E002F072FB002801D104253A
:1001600003E0607A012800D00025974E617AE8B25A
:1001700088421BD065729549EDB2012D06D015D38A
:10018000032D0BD006D3042D0BD00FE00322322118
:10019000322009E03200FA20C00005E03200C82019
:1001A00002E032008A49642000F089FA2078A27ABD
:1001B000904213D0A0726169401E08280ED802A296
:1001C000125C5200974400BF05070B254B54A7BC97
:1001D000C200804800E0804800F0A4FAC2E000209D
:1001E00020700029FAD07D4800F09CFAC8480089A8
:1001F0008019C749088102F09FFEA17A606903F067
:10020000FFFAA17A606903F093FD0020606120721B
:10021000A8E0002020700029FAD0BE4800F082FA41
:10022000BB480089401CBA49088110201949086060
:10023000B948FDF741FC05201649086002F07CFE34
:1002400004F008F90200A17A606903F0AFFD00280C
:1002500002D1606902F050FF0020606182E0AF4887
:1002600000F060FA00202070A07801285CD064E0E3
:1002700000202070E079A1788027FF03A84D7E0040
:10028000012924D1012807D155A000F04BFA1BE029
:10029000703B00200C250040022815D1FA20800078
:1002A00001F0BFFB55A000F03DFAFA20C00001F0BC
:1002B000B8FB0220A0702E606F600022A4214900CC
:1002C0002000183001F0D4F80020E0712CE0022961
:1002D00048D1012804D100BF4CA000F023FA17E058
:1002E000022815D1FA20800001F09BFB47A000F006
:1002F00019FAFA20C00001F094FB0120A0702F60D1
:100300006E600022A42149002000183001F0B0F8EE
:100310000020E0711FE000BF44A000F003FA0020BD
:100320002070A078012808D1A17A002003F068FA93
:10033000A17A002003F0FCFC14E0022812D10AE0AC
:100340003DA000F0EFF900202070EDE741A000F0A3
:10035000E9F90020207004F07DF80200A17A002065
:1003600003F024FD6A48408E6949098E884226D0F0
:1003700002F065FA002822D06548448E641CA4B2BD
:10038000A020C000844200DB00241020D249086075
:10039000210000BF35A0FDF78FFB0520CE49086086
:1003A000BC484068E100401802680421406803F03E
:1003B000FDFC002803D05648448602F0BDFDF1BD87
:1003C000248A0200243F0020FFFF0000B80B000039
:1003D00088130000388A0200448A0200508A020012
:1003E000C7EBCEF0D5DAB5B2B3F6C9A1BFDA2CC7E8
:1003F000EBD6D8D0C2BDE8C9A1000000C7EBCEF053
:10040000D5DAB5B2B3F6C9A1BFDA0000C7EBD5FDA6
:10041000C8B7D5DBB5FEB7C5D6C3D3EAC9A1BAF311
:10042000D4D9B4CEB9E9BBB900000000C9E8B1B86D
:10043000B9CAD5CF00000000B1BEBBFACEDED3EA08
:10044000C9A1BFC9C8A1A3ACC7EBBBBBD2BBCCA8D9
:1004500000000000B1BEBBFAB4E6C9A1D2D1C2FA15
:10046000A3ACC7EBBBBBD2BBCCA800003E205265FF
:10047000706F72742048697374726F793A25752EA3
:100480000D0A0000F8B5B24C2000183001F01CF83D
:100490000020A081224E802000033060502001F017
:1004A000C0FA0125A57010271948008900280BD132
:1004B0000522FA218900C82000F010F908202070D8
:1004C0008548076017A00EE0B068800C284010D166
:1004D0001E226421642000F001F9E57106202070DD
:1004E0007D48076016A0FDF7E7FA05207A49086005
:1004F000F1BD2570022020724003306000023060A0
:10050000400070600022A42149002000183006E15C
:100510006C250020608A0200708A0200908A020026
:10052000080500503E20426F72726F775F4163741E
:10053000696F6E20456D7074792E0D0A0000000001
:100540003E20426F72726F775F416374696F6E20F5
:10055000495220537475636B2E0D0A00F8B57C4C1C
:100560002000183000F0B0FF0020A0810220A07011
:10057000BA4E80043060502001F053FA0527102550
:1005800074480189408981420CD30522FA218900EF
:10059000C82000F0A3F8092020704F48056000BF74
:1005A00010A010E0B0684103C90F0DD11E226421D4
:1005B000642000F093F80120E07106202070464886
:1005C000056000BF0DA044E10220207040033060B0
:1005D00040023060400870600022A42149002000E1
:1005E00018309CE03E20426F72726F775F416374F7
:1005F000696F6E2046756C6C2E0D0A003E205265A8
:100600007061795F416374696F6E20495220537441
:1006100075636B2E0D0A000010B52F4C1020206062
:1006200005A0FDF749FA052020608C488021890447
:100630000160C9001AE000003E204D6F766520661B
:100640006F727761726420616374696F6E0D0A0066
:1006500010B5214C1020206008A0FDF72DFA0520D0
:1006600020607E48802149050160C9084160002260
:100670007B497C4800F0FCFE10BD00003E204D6F21
:100680007665206261636B20616374696F6E0D0A29
:1006900000000000A025002010B5734C802000034E
:1006A000206040092060C24800218181183000F09C
:1006B0000BFF8020C00320604000206010BDF8B513
:1006C00005000F001600BB4C20000C3000F0FCFEB3
:1006D0006248802189010DE00C250040F8B5050035
:1006E0000F001600B44C20000C3000F0EDFE5B480B
:1006F0008021C90141600022E2802272258067804A
:10070000A680016001202072E803FA214900401808
:100710004900FFF7CAFB0100002220000C3000F066
:10072000A7FEF1BD38B50500094C2000583000F097
:10073000CBFE80208002494908600020607025615E
:10074000002247492000583000F092FE31BD0000E1
:10075000703B00206C25002080B504F009F801BD35
:10076000F8B5414E70680527914C00250106C90F68
:1007700017D110203D4908603DA0FDF79DF93B4889
:100780000760802080043060C0003060032020704B
:10079000052001F046F9FFF75BFF0120E07065716D
:1007A000A0717068C105C90F16D1E078012813D176
:1007B00010202E49086000BF34A0FDF77DF92B48BA
:1007C00007606571802080043060C00030602000C8
:1007D000383000F079FEE57070688100C90F18D0DC
:1007E0000522FA2149004800FFF778FF2000383041
:1007F00000F06AFE6571802080043060C0003060C7
:1008000027701020194908606CA0FDF755F91748AA
:1008100007606079401CA179002960710DD1C0B2D8
:10082000C82811D16571802080043060C00030601C
:100830002000383000F048FE06E0C0B2C82803D1DE
:100840006571A571FFF704FF10200849086000BF1B
:1008500013A0FDF731F905480760F1BD0805005008
:10086000CD0C0000A83B00200C0500500C250040DA
:100870003E2077616974696E6720666F72206D6FC4
:1008800076696E67206261636B0D0A003E206669BF
:100890006E69736820746865207461736B0D0A005B
:1008A0003E207465737420746865207461736B0DE9
:1008B0000A000000F8B50527B04D3D4CA0890B2873
:1008C00018DBAF4800688102C90F13D00522FA2156
:1008D00049004800FFF702FF2000183000F0F4FD47
:1008E000FFF7DAFE27701020286000BF33A0FDF765
:1008F000E3F82F60A24800684103C90F14D11E22FB
:1009000064216420FFF7EAFE2000183000F0DCFDCF
:10091000FFF7C2FE0220E071062020701020286040
:100920002BA0FDF7C9F82F600026A08965282BDBD6
:10093000934800684106C90F26D12000183000F006
:10094000C3FDFFF7A9FE207801280CD110202860F4
:1009500024A0FDF7B1F82F60207901280ED1FFF710
:100960005BFE26710AE0022808D11020286000BF33
:1009700023A0FDF7A1F82F6004202070102028602C
:1009800025A0FDF799F82F60A089411CA1819B4902
:1009900088420BDBA681FFF77FFE07202070102026
:1009A000286000BF22A0FDF787F82F60F1BD00008E
:1009B000703B0020883D0020B43D00203E204D6F5C
:1009C000746F7220697320537475636B2E0D0A0067
:1009D0003E204D6F746F7220495220537475636BC3
:1009E0002E0D0A003E204D6F746F722052756E6E90
:1009F000696E6720666F72776172652E0D0A00005E
:100A00003E204D6F746F722052756E6E696E672056
:100A10006261636B2E0D0A003E204D6F746F722071
:100A200052756E6E696E67206F7665722E0D0A00C4
:100A30003E204D6F746F722052756E6E696E672026
:100A400054696D656F75742E0D0A0000F8B50022AB
:100A50006B4CE0886B49884200D1E280E388A18832
:100A60008B4220D2684DFA21890048088026B601C1
:100A7000277A002F09D06E6022725B1CE380A28867
:100A80009BB293420FD2628803E02E600122227251
:100A90002288D2031018FFF708FA01000022200074
:100AA0000C3000F0E5FCF1BDF8B50022574CE088B1
:100AB0005449884200D1E280E388A1888B4220D249
:100AC000514DFA21890048088026F601277A002F27
